:100000000C944A000C945C000C945C000C94E80086
:100010000C9473000C9484010C945C000C945C00B0
:100020000C945C000C945C000C945C000C945C00E0
:100030000C945C000C945C000C945C000C945C00D0
:100040000C945C000C945C000C945C000C945C00C0
:100050000C945C000C945C000C945C000C945C00B0
:100060000C945C000C945C000201370145015301C3
:100070006101160116011601160116016F01230117
:100080009E01CA01D801E601F401B301B3010A02DD
:100090001702C00111241FBECFEFD8E0DEBFCDBFD5
:1000A00021E0A0E0B1E001C01D92A130B207E1F76C
:1000B0000E945E000C9432020C9400001092000129
:1000C00085B7806185BF87E08093680080E1809379
:1000D0006C008FEF85B99FE798B98BB980E287B93B
:1000E000459A7894FFCF1F920F920FB60F9211246A
:1000F0002F938F939F9392E09BBB8091000182305E
:1001000009F459C020F5882309F447C08130A9F4C7
:1001100090916C0088E0892780936C0098B180E210
:10012000892788B990916C0084E0892780936C00BE
:10013000809100018F5F8093000182E08BBB9F91D3
:100140008F912F910F900FBE0F901F9018958330B5
:10015000B9F0843091F790916C0081E08927809309
:100160006C0098B180E2982798B990916B0089272C
:1001700080936B00809100018F5F80930001DDCF41
:1001800080916C00982790936C0098B180E2892749
:1001900088B990916C0081E0C8CF90916C0080E1AB
:1001A000892780936C0098B180E2892788B9909163
:1001B0006C0088E0BACF20916C0094E09227909375
:1001C0006C0028B190E2922798B990916C00ADCF65
:1001D0001F920F920FB60F9211248F939F93AF939C
:1001E000BF93EF93FF9381E08BBBE09100018E2FD3
:1001F00090E0FC013597EC30F105C0F4EC5CFF4F6A
:100200000C942C0290916B0080E2982790936B00E5
:1002100098B1892788B990916B0080E189278093F4
:100220006B00809100018F5F8093000181E08BBBA8
:10023000FF91EF91BF91AF919F918F910F900FBE62
:100240000F901F90189580916B00805880936B00E1
:1002500098B180E2982798B990916D008927809392
:100260006D00809100018F5F80930001DFCF90913E
:100270006B0080E1892780936B0098B180E2892729
:1002800088B990916B0088E0C9CF90916B0088E0AD
:10029000892780936B0098B180E2892788B9909173
:1002A0006B0084E0BBCF90916B0084E08927809342
:1002B0006B0098B180E2892788B990916B0082E049
:1002C000ADCF90916B0082E0892780936B0098B14D
:1002D00080E2892788B990916D0081E0BFCF90912D
:1002E0006B0080E4892780936B0098B180E28927B6
:1002F00088B980916B00805880936B0080910001D9
:100300008F5F8093000192CF1F920F920FB60F92D2
:1003100011248F939F93AF93BF93EF93FF9384E048
:100320008BBBE09100018E2F90E0FC013A97EA3000
:10033000F105C8F4E05CFF4F0C942C0290916D0025
:1003400081E0892780936D0098B180E2892788B980
:1003500090916D0082E0892780936D00809100016B
:100360008F5F8093000184E08BBBFF91EF91BF9181
:10037000AF919F918F910F900FBE0F901F90189586
:1003800080916D00805880936D0098B180E289273C
:1003900088B9E9CF90916D0082E0892780936D0044
:1003A00098B180E2892788B990916D0084E0D3CF1D
:1003B00090916D0084E0892780936D0098B180E270
:1003C000892788B990916D0088E0C5CF90916D0024
:1003D00088E0892780936D0098B180E2892788B9E9
:1003E00090916D0080E1B7CF90916D0080E18927F9
:1003F00080936D0098B180E2892788B990916B0055
:1004000080E4892780936B00809100018F5F809347
:100410000001A9CF90916D0080E2982790936D0024
:1004200098B1892788B990916D0080E494CF90911C
:100430006D0080E4892780936D0098B180E2892760
:1004400088B980916D00805880936D008091000183
:100450008F5F8093000187CFEE0FFF1F0590F4910F
:08046000E02D0994F894FFCF90
:00000001FF
