S0100000666C7578746573742E7372656395
S11300000C94B5000C94A3010C940E010C94D20032
S11300100C94D2000C94D2000C94D2000C94D20014
S11300200C94D2000C94D2000C94D2000C94D20004
S11300300C94D2000C94D2000C94D2000C94D200F4
S11300400C94D2000C94D2000C94D2000C94D200E4
S11300500C94D2000C94D2000C94D2000C94D200D4
S11300600C94D2000C94D2006E616E00696E66002E
S113007000407A10F35A00A0724E18090010A5D45B
S1130080E80000E87648170000E40B54020000CAB8
S11300909A3B000000E1F5050000809698000000FE
S11300A040420F000000A08601000000102700005D
S11300B00000E803000000006400000000000A00E3
S11300C0000000000100000000002C76D888DC67E6
S11300D04F0823DFC1DFAE59E1B1B796E5E3E4533E
S11300E0C63AE651997696E8E6C28426EB898C9B5B
S11300F062ED407C6FFCEFBC9C9F40F2BAA56FA5FB
S1130100F490055A2AF75C936B6CF9676DC11BFC7C
S1130110E0E40D47FEF520E6B500D0ED902E030097
S1130120943577050080841E080000204E0A0000E4
S113013000C80C333333330F986E12831141EF8DA3
S11301402114893BE65516CFFEE6DB18D1844B38E3
S11301501BF77C1D901DA4BBE424203284725E2214
S11301608100C9F124ECA1E53D2711241FBECFEF86
S1130170D8E0DEBFCDBF11E0A0E0B1E0ECE7F2E1F2
S113018002C005900D92A233B107D9F721E0A2E392
S1130190B1E001C01D92AD36B207E1F70E94F8004C
S11301A00C943C090C9400008A3049F09091C000F2
S11301B095FFFCCF8093C60080E090E00895909175
S11301C0C00095FFFCCF9DE09093C600EFCF109246
S11301D0C5001092C40088E18093C10086E080933A
S11301E0C20080E091E090936A01809369010895D0
S11301F01092660185B7806185BF8CE08BB985E07C
S11302008093690093E09DBB8093810078940E9461
S1130210E7008EE091E00E948B08FFCF1F920F92BF
S11302200FB60F921124DF92EF92FF920F931F9358
S11302302F933F934F935F936F937F938F939F93EA
S1130240AF93BF93CF93DF93EF93FF9380916601B6
S1130250882309F46FC08091840090918500909365
S113026033018093320110928500109284006091D2
S113027032017091330180E090E00E94A1022DEBE5
S113028037E346E858E30E942F03162F072FF82E72
S1130290E92EC0913201D0913301D0906601B801AA
S11302A0C701272F362F492F582F6AE077ED83EAAD
S11302B09BE30E942F029F938F937F936F93EF9200
S11302C0FF920F931F93DF93CF931F92DF9280E2ED
S11302D091E09F938F93C4E3D1E0DF93CF930E9487
S11302E0BB08DF93CF930E9475088DB79EB74296E3
S11302F00FB6F8949EBF0FBE8DBF809166018F5FCD
S113030080936601FF91EF91DF91CF91BF91AF91FF
S11303109F918F917F916F915F914F913F912F9119
S11303201F910F91FF90EF90DF900F900FBE0F90F1
S11303301F90189510928500109284008AE191E034
S11303400E948B08DACF1F920F920FB60F921124DE
S1130350DF92EF92FF920F931F932F933F934F934C
S11303605F936F937F938F939F93AF93BF93CF9339
S1130370DF93EF93FF938091840090918500909395
S113038033018093320180916601853209F41DBAEC
S113039010928500109284006091320170913301B3
S11303A080E090E00E94A1022DEB37E346E858E399
S11303B00E942F03162F072FF82EE92EC091320129
S11303C0D0913301D0906601B801C701272F362F91
S11303D0492F582F6AE077ED83EA9BE30E942F02AE
S11303E09F938F937F936F93EF92FF920F931F933B
S11303F0DF93CF931F92DF9280E291E09F938F93DC
S1130400C4E3D1E0DF93CF930E94BB08DF93CF9383
S11304100E947508809166018F5F809366018DB795
S11304209EB742960FB6F8949EBF0FBE8DBFFF9144
S1130430EF91DF91CF91BF91AF919F918F917F9178
S11304406F915F914F913F912F911F910F91FF9069
S1130450EF90DF900F900FBE0F901F9018950E94A1
S113046043020C94F5020E94EE0258F00E94E70247
S113047040F029F45F3F29F00C94DE0251110C94F2
S113048029030C94E4020E94060368F39923B1F350
S1130490552391F3951B550BBB27AA2762177307A6
S11304A0840738F09F5F5F4F220F331F441FAA1F3A
S11304B0A9F335D00E2E3AF0E0E832D091505040F6
S11304C0E695001CCAF72BD0FE2F29D0660F771FA4
S11304D0881FBB1F261737074807AB07B0E809F08A
S11304E0BB0B802DBF01FF2793585F4F3AF09E3F0F
S11304F0510578F00C94DE020C9429035F3FE4F379
S1130500983ED4F3869577956795B795F7959F5F51
S1130510C9F7880F911D9695879597F90895E1E09D
S1130520660F771F881FBB1F621773078407BA07FC
S113053020F0621B730B840BBA0BEE1F88F7E09557
S11305400895E89409C097FB3EF4909580957095C2
S113055061957F4F8F4F9F4F9923A9F0F92F96E90B
S1130560BB279395F695879577956795B795F11180
S1130570F8CFFAF4BB0F11F460FF1BC06F5F7F4F1D
S11305808F4F9F4F16C0882311F096E911C077232F
S113059021F09EE8872F762F05C0662371F096E838
S11305A0862F70E060E02AF09A95660F771F881F07
S11305B0DAF7880F9695879597F9089597F99F67C5
S11305C080E870E060E008959FEF80EC08950024D7
S11305D00A941616170618060906089500240A94A4
S11305E012161306140605060895092E0394000C2A
S11305F011F4882352F0BB0F40F4BF2B11F460FFB9
S113060004C06F5F7F4F8F4F9F4F089557FD9058E1
S1130610440F551F59F05F3F71F04795880F97FBC2
S1130620991F61F09F3F79F087950895121613067C
S11306301406551FF2CF4695F1DF08C016161706AB
S11306401806991FF1CF86957105610508940895E0
S1130650E894BB2766277727CB0197F908950E9472
S113066042030C94F5020E94E70238F00E94EE0265
S113067020F0952311F00C94DE020C94E402112472
S11306800C9429030E94060370F3959FC1F3950F00
S113069050E0551F629FF001729FBB27F00DB11D02
S11306A0639FAA27F00DB11DAA1F649F6627B00D92
S11306B0A11D661F829F2227B00DA11D621F739F7B
S11306C0B00DA11D621F839FA00D611D221F749F89
S11306D03327A00D611D231F849F600D211D822FD0
S11306E0762F6A2F11249F5750409AF0F1F08823F7
S11306F04AF0EE0FFF1FBB1F661F771F881F915024
S11307005040A9F79E3F510580F00C94DE020C94F2
S113071029035F3FE4F3983ED4F386957795679574
S1130720B795F795E7959F5FC1F7FE2B880F911D4D
S11307309695879597F90895A3E1B0E0E2EAF3E08E
S11307400C9418076C014B012A01FC0117821682D4
S1130750838181FF43C3AE014F5F5F4F3A01F601CE
S11307609381F40193FD859193FF81914F01882337
S113077009F430C3853239F493FD859193FF819157
S11307804F01853239F4B60190E00E943D085201D0
S11307902501E5CF10E0F12C20E02032A0F48B32CB
S11307A069F030F4803259F0833269F420612CC04E
S11307B08D3239F0803339F4216026C02260246000
S11307C023C0286021C027FD27C030ED380F3A3000
S11307D078F426FF06C0FAE01F9F300D1124132F72
S11307E013C04AE0F49E300D1124F32E20620CC095
S11307F08E3221F426FDEEC2206406C08C3611F43C
S1130800206802C0883641F4F40193FD859193FF7A
S113081081914F018111C1CF9BEB980F933018F454
S11308202061805E06C09BE9980F933008F071C187
S11308302F7E26FF16E02F73322E853619F420649E
S1130840322E08C0863621F4F22FF0683F2E02C003
S11308501111115037FE07C01C3350F4EE24E394F9
S1130860E10E27E00BC0183038F027E017E005C090
S113087027E04CE3E42E02C0212FE12C520144E096
S1130880A40EB11CF20160817181828193810E2DCD
S1130890A3010E944F072C01098100FF02C003FF3E
S11308A007C031FC08C032FE09C030E2232E07C065
S11308B02DE2222E04C09BE2292E01C0212C802F80
S11308C08C7019F0211068C2A8C237FE0FC0E40C66
S11308D004FF04C08A81813309F4EA941E1474F578
S11308E0F8E0FE1578F588E0E82E2CC036FC2AC026
S11308F0812F90E0841595059CF02CEF42162FEF84
S1130900520674F0432D4068342E0AC0E2E0F0E051
S1130910EC0FFD1FE10FF11D8081803319F411509C
S11309201111F4CF37FE0EC0EE24E394E10E812FB3
S113093090E0481659062CF4141904C0EE24E394EC
S113094001C010E037FE06C01414150434F4C201CB
S1130950019605C085E090E002C081E090E021109E
S11309600196112331F0212F30E02F5F3F4F820F8A
S1130970931F2F2D30E08217930714F4F81A01C047
S1130980F12C832D897049F4FF2039F0B60180E2FF
S113099090E00E943D08FA94F7CF222029F0B60196
S11309A0822D90E00E943D0833FC09C0FF2039F0FD
S11309B0B60180E390E00E943D08FA94F7CF37FE39
S11309C05AC0942D852D57FE02C090E080E0292E58
S11309D0382E20E030E0A2014E1951095D874C8782
S11309E0A201421953095F874E87612F70E04427A3
S11309F05527461B570B598B488B5FEF2516350639
S1130A0049F4B6018EE290E02A8B3B8B0E943D08AC
S1130A103B892A89421453046CF04C855D85421548
S1130A20530544F4EE85FF85E20FF31FE60DF71D31
S1130A30818101C080E351E0251A31082F5F3F4FC7
S1130A4048895989241635064CF0B60190E02A8B62
S1130A503B8B0E943D082A893B89CFCF241435045F
S1130A6039F49A81963318F4953311F404FF81E331
S1130A70B60190E04BC08A81813309F00F7EB60144
S1130A8090E00E943D08111105C034FC18C085E6B1
S1130A9090E017C0B6018EE290E00E943D0882E02B
S1130AA0EE24E394E80EF301E80FF11D8081B60112
S1130AB090E00E943D0811508E2D91F7E6CF85E419
S1130AC090E0B6010E943D0857FC05C04114510452
S1130AD039F404FF05C05194419451088DE201C0DA
S1130AE08BE2B60190E00E943D0880E39AE049164B
S1130AF051042CF08F5F5AE0451A5108F7CFB60124
S1130B0090E00E943D08B601C201C0960E943D08D3
S1130B1057C1833631F0833779F0833509F058C0F3
S1130B2021C05201E2E0AE0EB11CF2018081898342
S1130B3001E010E0230114C05201F2E0AF0EB11C39
S1130B40F2014080518026FF03C0612F70E002C093
S1130B506FEF7FEFC2012A8B0E9432088C012A8931
S1130B602F7715C05201F2E0AF0EB11CF2014080A4
S1130B70518026FF03C0612F70E002C06FEF7FEF4A
S1130B80C2012A8B0E9427088C012A892068322EF0
S1130B9023FD1AC08F2D90E008171907A8F4B60199
S1130BA080E290E00E943D08FA94F4CFF20137FC11
S1130BB0859137FE81912F01B60190E00E943D0896
S1130BC0F110FA94015011090115110579F7F8C0D3
S1130BD0843611F0893659F5520127FF09C0F4E033
S1130BE0AF0EB11CF20160817181828193810AC0D0
S1130BF0F2E0AF0EB11CF20160817181072E000C8E
S1130C00880B990B2F76322E97FF09C0909580950B
S1130C10709561957F4F8F4F9F4F2068322E2AE049
S1130C2030E0A3010E94DE08E82EE6183FC0022F40
S1130C30853721F40F7E2AE030E01DC0097F8F360E
S1130C4091F018F4883559F0C5C0803719F0883709
S1130C5011F0C0C0006104FF09C0046007C024FF94
S1130C6008C0066006C028E030E005C020E130E09E
S1130C7002C020E132E0520107FF09C0F4E0AF0EE8
S1130C80B11CF201608171818281938108C0F2E01C
S1130C90AF0EB11CF2016081718180E090E0A3018C
S1130CA00E94DE08E82EE6180F77302E36FE0BC0C1
S1130CB0332D3E7FE11650F434FE0AC032FC08C0E6
S1130CC0332D3E7E05C00E2D332D03C00E2D01C0E5
S1130CD0012F34FF0CC0FE01EE0DF11D8081803325
S1130CE011F4397E08C032FF05C00E5F04C0832FA3
S1130CF0867809F00F5F33FD13C030FF06C01E2D48
S1130D000F1518F41F0D101B0F2D0F1568F4B601E5
S1130D1080E290E03B8B0E943D080F5F3B89F5CF5A
S1130D200F1510F4F01A01C0F12C34FF12C0B601F3
S1130D3080E390E03B8B0E943D083B8932FF17C063
S1130D4031FD03C088E790E002C088E590E0B60179
S1130D500CC0832F867859F031FF02C08BE201C0AA
S1130D6080E237FD8DE2B60190E00E943D08E11675
S1130D7038F4B60180E390E00E943D081150F7CFAB
S1130D80EA94F301EE0DF11D8081B60190E00E941A
S1130D903D08E110F5CF14C0F4E0FF1558F584E0E8
S1130DA0F81A33FE1EC0211026C003FF2AC008E62D
S1130DB010E0F32DF0713F2EF8018491811124C0CD
S1130DC0FF2009F4E5CCB60180E290E00E943D08E2
S1130DD0FA94F6CFF6018681978126C08FEF9FEFB4
S1130DE023C0B60180E290E00E943D08FA94F1101D
S1130DF0F8CFD9CFF12CB601822D90E00E943D08A6
S1130E00D4CF0CE610E0D5CF31108052B60190E07B
S1130E100E943D080F5F1F4FCFCF23E02F1510F422
S1130E2083E0BECFF12CC1CF6396E2E10C9434078A
S1130E302F923F924F925F926F927F928F929F92E6
S1130E40AF92BF92CF92DF92EF92FF920F931F93D4
S1130E50CF93DF93CDB7DEB7CA1BDB0B0FB6F89485
S1130E60DEBF0FBECDBF09942A88398848885F84C5
S1130E706E847D848C849B84AA84B984C884DF8036
S1130E80EE80FD800C811B81AA81B981CE0FD11D1A
S1130E900FB6F894DEBF0FBECDBFED010895283024
S1130EA008F027E03327DA01990F311D87FD91609F
S1130EB000966105710539F432602E5F3D9330E38D
S1130EC02A95E1F708959F3F30F080387105610558
S1130ED009F03C5F3C5F3D93913008F08068911DC0
S1130EE0DF93CF931F930F93FF92EF92192F987F65
S1130EF09695E92F96959695E90FFF27E653FF4FB0
S1130F0099273327EE24FF24A701E70105900894CD
S1130F10079428F4360FE71EF81E491F511D660F6B
S1130F20771F881F991F0694A1F70590079428F44A
S1130F30E70EF81E491F561FC11D770F881F991F02
S1130F40661F0694A1F70590079428F4F80E491F2C
S1130F50561FC71FD11D880F991F661F771F069440
S1130F60A1F70590079420F4490F561FC71FD81FF7
S1130F70990F661F771F881F0694A9F7849110950F
S1130F80177041F0D695C79557954795F794E79410
S1130F901A95C1F7E0E7F0E0689415901591359142
S1130FA06591959105907FE27395E118F10A430BE1
S1130FB0560BC90BD009C0F7E10CF11E431F561F95
S1130FC0C91FD01D7EF4703311F48A95E6CFE894DE
S1130FD0015030F0080F0AF40027021708F4202FFC
S1130FE02395022F7A3328F079E37D932A95E9F744
S1130FF010C07D932A9589F6069497956795379541
S113100017951794E118F10A430B560BC90BD00935
S113101098F023957E9173957A3308F070E37C936E
S11310202013B8F77E9170617D9330F0839571E35E
S11310307D9370E32A95E1F71124EF90FF900F91CF
S11310401F91CF91DF91992787FD90950895FC0119
S11310500590615070400110D8F7809590958E0FDF
S11310609F1F0895FC016150704001900110D8F752
S1131070809590958E0F9F1F08950F931F93CF9384
S1131080DF93FB01238121FD03C08FEF9FEF28C075
S113109022FF16C0468157812481358142175307A8
S11310A044F4A081B1819D012F5F3F4F31832083A0
S11310B08C93268137812F5F3F4F3783268310C05F
S11310C0EB01092F182F0084F185E02D0995892B58
S11310D0E1F68E819F8101969F838E83812F902FCD
S11310E0DF91CF911F910F910895A0E0B0E0EBE75D
S11310F0F8E00C942807AE014B5F5F4FFA01619151
S11311007191AF018091690190916A010E949C03E1
S1131110E2E00C9444070F931F93CF93DF93E09185
S11311206901F0916A01238121FF1BC08C01D0E089
S1131130C0E0F80181918F016091690170916A01A9
S1131140DB011896ED91FC911997882331F00995EC
S1131150892B79F3DFEFCFEFECCF8AE00995892B68
S113116019F08FEF9FEF02C08D2F9C2FDF91CF914D
S11311701F910F910895AEE0B0E0E1ECF8E00C941B
S113118026070D891E8986E08C831A8309838FEFD5
S11311909FE79E838D83AE01475E5F4F6F89788D95
S11311A0CE0101960E949C032F813885F801E20F3D
S11311B0F31F10822E96E4E00C944207FA01AA274A
S11311C0283051F1203181F1E8946F936E7F6E5F86
S11311D07F4F8F4F9F4FAF4FB1E03ED0B4E03CD034
S11311E0670F781F891F9A1FA11D680F791F8A1F17
S11311F0911DA11D6A0F711D811D911DA11D20D07E
S113120009F468943F912AE0269F11243019305D37
S11312103193DEF6CF010895462F4770405D419328
S1131220B3E00FD0C9F7F6CF462F4F70405D4A3375
S113123018F0495D31FD4052419302D0A9F7EACF3D
S1131240B4E0A6959795879577956795BA95C9F76C
S113125000976105710508959B01AC010A2E06945F
S11312605795479537952795BA95C9F7620F731F18
S10F1270841F951FA01D0895F894FFCF63
S113127C0000000200000000D400000000005374C1
S113128C617274696E6720557000537461727400D6
S113129C257509257509252E366609252E36660A07
S10512AC00003C
S9030000FC
