S0100000666C7578746573742E7372656395
S11300000C94DC000C9464020C941A020C94F90015
S11300100C94F9000C94F9000C94F9000C94F90078
S11300200C94F9000C94F9000C94F9000C94F90068
S11300300C94F9000C9494020C94F9000C94F900BB
S11300400C94F9000C94F9000C94AB020C94F90094
S11300500C94F9000C94F9000C94F9000C94F90038
S11300600C94F9000C94F9006E616E00696E6600E0
S113007000407A10F35A00A0724E18090010A5D45B
S1130080E80000E87648170000E40B54020000CAB8
S11300909A3B000000E1F5050000809698000000FE
S11300A040420F000000A08601000000102700005D
S11300B00000E803000000006400000000000A00E3
S11300C0000000000100000000002C76D888DC67E6
S11300D04F0823DFC1DFAE59E1B1B796E5E3E4533E
S11300E0C63AE651997696E8E6C28426EB898C9B5B
S11300F062ED407C6FFCEFBC9C9F40F2BAA56FA5FB
S1130100F490055A2AF75C936B6CF9676DC11BFC7C
S1130110E0E40D47FEF520E6B500D0ED902E030097
S1130120943577050080841E080000204E0A0000E4
S113013000C80C333333330F986E12831141EF8DA3
S11301402114893BE65516CFFEE6DB18D1844B38E3
S11301501BF77C1D901DA4BBE424203284725E2214
S11301608100C9F124ECA1E53D276364696E6F70D9
S1130170737578585B65666745464700616E006E27
S113018066696E69747900CDCCCC3D0AD7233C17DF
S1130190B7D13877CC2B329595E6241FB14F0A009E
S11301A00020410000C84200401C4620BCBE4CCA8E
S11301B01B0E5AAEC59D740011241FBECFEFD8E0AC
S11301C0DEBFCDBF11E0A0E0B1E0E8E8FBE102C092
S11301D005900D92A432B107D9F721E0A4E2B1E071
S11301E001C01D92A533B207E1F70E9490010C945F
S11301F0C20D0C9400008CE08093B8000895109216
S1130200BC0094EA9093BC009091BC0097FFFCCF93
S11302109091B900987F983011F081E0089580930F
S1130220BB0084E88093BC008091BC0087FFFCCFB6
S11302308091B900887F883111F0803471F780E0B3
S113024008958093BB0084E88093BC008091BC0037
S113025087FFFCCF9091B900987F81E0983209F430
S113026080E0089584EC8093BC008091BC0087FFFB
S1130270FCCF8091BB00089584E88093BC008091FA
S1130280BC0087FFFCCF8091BB00089584E9809374
S1130290BC000895CF93C82F8A3029F460E070E041
S11302A08DE00E944A018091C00085FFFCCFC0937D
S11302B0C60080E090E0CF910895CF932091C000D4
S11302C025FFFCCFC091C600BC018C2F0E944A01BF
S11302D08C2F90E0CF9108959B01AC0184E0220F14
S11302E0331F441F551F8A95D1F760E074E284EFF1
S11302F090E00E94290B215031093093C5002093CE
S1130300C40088E98093C10086E08093C200EFE2D4
S1130310F1E080E091E09383828391838083089568
S113032085B7877F85BF8091600088618093600076
S11303301092600010922601109228011092270159
S113034010922D0110922C011092290110922B0170
S113035010922A0185E08093690093E09DBB80930D
S1130360810081E080936F00789460E472E48FE010
S113037090E00E946C010E94FB008EE091E00E94DC
S1130380180DC7E1D1E080912901882381F1809182
S11303902601813041F410922D0110922C0110920B
S11303A025011092240140912A0150912B012091A2
S11303B024013091250180912C0190912D016091AF
S11303C026015F934F933F932F939F938F931F9295
S11303D06F93DF93CF930E94020D109229018DB782
S11303E09EB70A960FB6F8949EBF0FBE8DBF80913C
S11303F02E01813641F6809160008861809360000F
S1130400FFCFCF93DF9380E80E94FF0081EF0E942B
S1130410210181E80E94FF000E943201D82F0E942E
S11304203C01C82F0E9446018C2F90E09D2BDF9148
S1130430CF9108951F920F920FB60F9211242F930C
S11304403F934F935F936F937F938F939F93AF9358
S1130450BF93CF93DF93EF93FF93C4E8D0E08881F9
S11304609981909325018093240180912701909193
S1130470280190932D0180932C010E9401029093F6
S11304802B0180932A0110922801109227011982CE
S11304901882809126018F5F8093260181E08093EA
S11304A02901FF91EF91DF91CF91BF91AF919F917E
S11304B08F917F916F915F914F913F912F910F9009
S11304C00FBE0F901F9018951F920F920FB60F92A8
S11304D011248F939F93EF93FF93E4E8F0E08081DE
S11304E0918190932501809324018091270190911B
S11304F0280190932D0180932C0111821082109277
S1130500280110922701809126018F5F8093260194
S113051081E080932901FF91EF919F918F910F903A
S11305200FBE0F901F9018951F920F920FB60F9247
S113053011248F939F938091270190912801019614
S113054090932801809327019F918F910F900FBE64
S11305500F901F9018951F920F920FB60F921124AF
S11305608F938091C60080932E018F910F900FBEC0
S11305700F901F901895A3E1B0E0E1ECF2E00C9429
S11305804B0B6C014B012A01FC01178216828381FB
S113059081FF43C3AE014F5F5F4F3A01F601938180
S11305A0F40193FD859193FF81914F01882309F410
S11305B030C3853239F493FD859193FF81914F01C6
S11305C0853239F4B60190E00E94CA0C520125012B
S11305D0E5CF10E0F12C20E02032A0F48B3269F05A
S11305E030F4803259F0833269F420612CC08D32AA
S11305F039F0803339F4216026C02260246023C09E
S1130600286021C027FD27C030ED380F3A3078F438
S113061026FF06C0FAE01F9F300D1124132F13C0CC
S11306204AE0F49E300D1124F32E20620CC08E3269
S113063021F426FDEEC2206406C08C3611F4206835
S113064002C0883641F4F40193FD859193FF8191B2
S11306504F018111C1CF9BEB980F933018F42061A7
S1130660805E06C09BE9980F933008F071C12F7E1D
S113067026FF16E02F73322E853619F42064322EAD
S113068008C0863621F4F22FF0683F2E02C0111103
S1130690115037FE07C01C3350F4EE24E394E10EEE
S11306A027E00BC0183038F027E017E005C027E03A
S11306B04CE3E42E02C0212FE12C520144E0A40EAD
S11306C0B11CF20160817181828193810E2DA3019D
S11306D00E94820B2C01098100FF02C003FF07C0A6
S11306E031FC08C032FE09C030E2232E07C02DE2DF
S11306F0222E04C09BE2292E01C0212C802F8C7055
S113070019F0211068C2A8C237FE0FC0E40C04FF20
S113071004C08A81813309F4EA941E1474F5F8E064
S1130720FE1578F588E0E82E2CC036FC2AC0812F0F
S113073090E0841595059CF02CEF42162FEF52069D
S113074074F0432D4068342E0AC0E2E0F0E0EC0F70
S1130750FD1FE10FF11D8081803319F41150111137
S1130760F4CF37FE0EC0EE24E394E10E812F90E027
S1130770481659062CF4141904C0EE24E39401C05D
S113078010E037FE06C01414150434F4C2010196B7
S113079005C085E090E002C081E090E02110019660
S11307A0112331F0212F30E02F5F3F4F820F931F31
S11307B02F2D30E08217930714F4F81A01C0F12C9E
S11307C0832D897049F4FF2039F0B60180E290E06E
S11307D00E94CA0CFA94F7CF222029F0B601822D88
S11307E090E00E94CA0C33FC09C0FF2039F0B60126
S11307F080E390E00E94CA0CFA94F7CF37FE5AC007
S1130800942D852D57FE02C090E080E0292E382ECD
S113081020E030E0A2014E1951095D874C87A20106
S1130820421953095F874E87612F70E0442755278B
S1130830461B570B598B488B5FEF2516350649F439
S1130840B6018EE290E02A8B3B8B0E94CA0C3B8956
S11308502A89421453046CF04C855D854215530576
S113086044F4EE85FF85E20FF31FE60DF71D818149
S113087001C080E351E0251A31082F5F3F4F4889BA
S11308805989241635064CF0B60190E02A8B3B8B2F
S11308900E94CA0C2A893B89CFCF2414350439F429
S11308A09A81963318F4953311F404FF81E3B60169
S11308B090E04BC08A81813309F00F7EB60190E04D
S11308C00E94CA0C111105C034FC18C085E690E0E2
S11308D017C0B6018EE290E00E94CA0C82E0EE24BA
S11308E0E394E80EF301E80FF11D8081B60190E076
S11308F00E94CA0C11508E2D91F7E6CF85E490E04A
S1130900B6010E94CA0C57FC05C04114510439F4C5
S113091004FF05C05194419451088DE201C08BE25B
S1130920B60190E00E94CA0C80E39AE04916510493
S11309302CF08F5F5AE0451A5108F7CFB60190E0CA
S11309400E94CA0CB601C201C0960E94CA0C57C1CB
S1130950833631F0833779F0833509F058C021C0EC
S11309605201E2E0AE0EB11CF2018081898301E004
S113097010E0230114C05201F2E0AF0EB11CF201E9
S11309804080518026FF03C0612F70E002C06FEFEA
S11309907FEFC2012A8B0E94810C8C012A892F7758
S11309A015C05201F2E0AF0EB11CF201408051803B
S11309B026FF03C0612F70E002C06FEF7FEFC2011A
S11309C02A8B0E94760C8C012A892068322E23FD02
S11309D01AC08F2D90E008171907A8F4B60180E219
S11309E090E00E94CA0CFA94F4CFF20137FC85918E
S11309F037FE81912F01B60190E00E94CA0CF110DC
S1130A00FA94015011090115110579F7F8C08436DB
S1130A1011F0893659F5520127FF09C0F4E0AF0EF1
S1130A20B11CF20160817181828193810AC0F2E07C
S1130A30AF0EB11CF20160817181072E000C880B8E
S1130A40990B2F76322E97FF09C09095809570955B
S1130A5061957F4F8F4F9F4F2068322E2AE030E000
S1130A60A3010E94610DE82EE6183FC0022F8537CE
S1130A7021F40F7E2AE030E01DC0097F8F3691F00B
S1130A8018F4883559F0C5C0803719F0883711F04B
S1130A90C0C0006104FF09C0046007C024FF08C08F
S1130AA0066006C028E030E005C020E130E002C066
S1130AB020E132E0520107FF09C0F4E0AF0EB11C9F
S1130AC0F201608171818281938108C0F2E0AF0EEE
S1130AD0B11CF2016081718180E090E0A3010E9469
S1130AE0610DE82EE6180F77302E36FE0BC0332D3D
S1130AF03E7FE11650F434FE0AC032FC08C0332DA8
S1130B003E7E05C00E2D332D03C00E2D01C0012FD6
S1130B1034FF0CC0FE01EE0DF11D8081803311F411
S1130B20397E08C032FF05C00E5F04C0832F86786B
S1130B3009F00F5F33FD13C030FF06C01E2D0F15E3
S1130B4018F41F0D101B0F2D0F1568F4B60180E269
S1130B5090E03B8B0E94CA0C0F5F3B89F5CF0F15C9
S1130B6010F4F01A01C0F12C34FF12C0B60180E376
S1130B7090E03B8B0E94CA0C3B8932FF17C031FDC9
S1130B8003C088E790E002C088E590E0B6010CC09D
S1130B90832F867859F031FF02C08BE201C080E2D6
S1130BA037FD8DE2B60190E00E94CA0CE11638F4DC
S1130BB0B60180E390E00E94CA0C1150F7CFEA948A
S1130BC0F301EE0DF11D8081B60190E00E94CA0C84
S1130BD0E110F5CF14C0F4E0FF1558F584E0F81ADD
S1130BE033FE1EC0211026C003FF2AC008E610E011
S1130BF0F32DF0713F2EF8018491811124C0FF2060
S1130C0009F4E5CCB60180E290E00E94CA0CFA94A3
S1130C10F6CFF6018681978126C08FEF9FEF23C020
S1130C20B60180E290E00E94CA0CFA94F110F8CF69
S1130C30D9CFF12CB601822D90E00E94CA0CD4CFFA
S1130C400CE610E0D5CF31108052B60190E00E943E
S1130C50CA0C0F5F1F4FCFCF23E02F1510F483E092
S1130C60BECFF12CC1CF6396E2E10C94670B20FD5B
S1130C7009C0FC0123FD05C022FF02C07383628307
S1130C8051834083089544FD10C046FD10C0DB012C
S1130C90FC01AA0FBB1FEE1FFF1F1094D1F76A0FB0
S1130CA07B1F8E1F9F1F31E003C033E001C034E07F
S1130CB0660F771F881F991F3150D1F7620F711D7E
S1130CC0811D911D08950F931F93CF93DF938C0182
S1130CD0C8010E948C0CEC0197FD08C00E945A0CBC
S1130CE0892BB1F7B801CE010E94480DCE01DF91E6
S1130CF0CF911F910F910895A0E0B0E0E2E8F6E0F3
S1130D000C94510B7C018B016A01D22F0E948C0C34
S1130D109C0133272B32310521F02D32310559F452
S1130D20D0680150110911F480E069C0C7010E9424
S1130D308C0C97FDF9CFCD2FCD7F2D2F207309F586
S1130D408033F9F4580181E0A81AB10809F443C0CA
S1130D50C7010E948C0C97FD3EC0282F2F7D28359B
S1130D6051F4C26402501109B1F1C7010E948C0C04
S1130D7097FF07C030C0D6FF02C0C26001C0C26185
S1130D808501812C912C540120ED280F283080F00E
S1130D90C4FF04C0B7010E94480D1AC02A3040F0B5
S1130DA0C6FFF8CF2F7D3FEE320F363098F727502D
S1130DB04C2FC501B4010E9443064B015C01C26083
S1130DC00150110959F0C7010E948C0C97FFDCCF28
S1130DD0C1FD04C0A9CF812C912C5401C7FF08C0C8
S1130DE0B094A09490948094811C911CA11CB11C7B
S1130DF02C2FB501A401C6010E94370681E0CDB7AE
S1130E00DEB7ECE00C946D0BA0E2B0E0EAE0F7E0B2
S1130E100C944D0B4C015B017A018E010F5F1F4F47
S1130E20680180E2F80111928A95E9F7F401638080
S1130E3040E050E0712C412C80E0A1E0B0E0F901E9
S1130E4063FC559063FE51908F01952D9F015110C5
S1130E5003C080E090E080C0FEE55F1203C041154E
S1130E60510561F1682F70E0641775074CF46DE566
S1130E70561669F1EDE25E1203C0442009F103C085
S1130E80411001C0752C692F669566956695F6012B
S1130E90E60FF11D692F67708D0102C0000F111F4D
S1130EA06A95E2F7B8017081672B6083971559F052
S1130EB0971510F49F5FE7CF9150E5CF81E004C010
S1130EC04424439401C0412C4F5F5F4FB8CF44206A
S1130ED019F09E8190629E83811103C077247394DC
S1130EE018C0F6019E012F5D3F4F8081809581934C
S1130EF0E217F307D1F7F2CFE114F10429F0F70177
S1130F008083C70101967C0191E0A91AB108712C74
S1130F10E9F0C4010E948C0C97FD16C0282F269579
S1130F2026952695F601E20FF11D208130E0AC01F3
S1130F304770552702C0359527954A95E2F720FD5D
S1130F40DBCFB4010E94480D711083CFE114F1048A
S1130F5011F0F7011082C801A096E0E10C94690B2E
S1130F60A6E0B0E0E6EBF7E00C944B0B5C017B01F0
S1130F701A010E948C0C9E838D8399278B329105D4
S1130F8021F08D9789F410E801C010E021E0E21A05
S1130F90F10811F480E02CC1C5010E948C0C9E83E1
S1130FA08D8397FF02C0F6CF10E08D819E810E9451
S1130FB0630C8936910549F08E36910509F03BC0E2
S1130FC06CE7862E61E0962E04C07FE7872E71E0E1
S1130FD0972EEFEF8E1A9E0AF401319704910023A5
S1130FE0C9F081E0E81AF10871F0C5010E948C0C87
S1130FF06C0197FD08C00E94630C081751F3B501FA
S1131000C6010E94480D92E8891691E0990609F0FC
S1131010C1CF05C0FFE78F16F1E09F0629F080E0FD
S113102090E0A0E8BFE704C080E090E0A0ECBFE758
S1131030BC01CD01CDC0412C512C3201C12CD12C8D
S11310402D8120532A3018F5012F0260812F8870DA
S113105012FF06C0811121C02FEFC21AD20A1DC08F
S1131060882319F081E0C81AD10840E2C301B20113
S11310700E9443062B013C0198E9491699E9590657
S1131080690699E1790648F0012F066006C02E3FF3
S113109091F413FD10C0012F0860E1E0EE1AF1088D
S11310A049F0C5010E948C0C9E838D83102F97FFFD
S11310B0C7CF01C0102F11FF6DCF8D818F7D853477
S11310C009F04EC04701F1E08F1A910809F462CF8C
S11310D0C5010E948C0C9E838D8397FD5BCF99275D
S11310E08B32910519F08D9761F41061470122E06C
S11310F0821A910809F44ECFC5010E948C0C9E837C
S11311008D838D819E81C0970A9708F043CF740127
S1131110812C912CB401990C880B990B2D812053AF
S113112040E20E944306AB01BC014A0181E0E81A97
S1131130F10871F0C50149835A836B837C830E9453
S11311408C0C9E838D83C09749815A810A9710F332
S113115014FF04C088249924841A950AC80CD91C45
S1131160EF2841F0ED81FE81F7FD04C0B501CF0108
S11311700E94480DC301B2010E942E0AD7FE08C086
S1131180D194C194D1085BE9852E51E0952E04C019
S113119043EB842E41E0942E5401F8E1AF1AB108D8
S11311A030E2E32EF12CCE14DF0450F0F40125914B
S11311B03591459154910E946B0ACE18DF08F3CF04
S11311C024E0821A9108F694E7948A149B0459F750
S11311D017FF05C0DC01CB01B058BC01CD012114BF
S11311E0310429F0F101608371838283938381E068
S11311F02696E2E10C94670BA1E0B0E0E2E0F9E0AE
S11312000C944D0B6C012B014A01FC0117821682D0
S1131210A12CF601F380F201F3FC8591F3FE819198
S1131220482F2F01882309F410C190E049830E94BC
S11312305A0C4981892B21F0C6010E946306E9CF2B
S1131240453241F4F201F3FC4591F3FE41912F0143
S1131250453269F4C60149830E948C0C498197FD8B
S1131260F2C04817B1F2B6010E94480DEEC04A32EE
S113127039F4F3FC4591F3FE41912F0151E001C093
S113128050E0320100E010E020ED240F2A3088F411
S11312905260B80180E090E040E259830E94430626
S11312A08B01F301F3FC4591F3FE41913F01598118
S11312B0EBCFB52E342F230151FF04C001151105C6
S11312C019F4C3C00FEF1FEF483619F04C3659F02C
S11312D013C0F301F3FC3591F3FE31912F0138363D
S11312E059F45860B52EFB2DF460BF2EF201F3FCC7
S11312F03591F3FE31912F01332309F4A6C0632FF6
S113130070E08AE691E039830E946B0C3981892B65
S113131009F49BC0B0FC07C0F401E080F180C40173
S113132002964C0102C0E12CF12C3E3651F4F60138
S11313304681578160E070E02B2DC7010E9437067B
S113134068CF3336A9F4B1FC02C001E010E0C60155
S11313500E948C0C97FD77C0E114F10429F0F70189
S11313608083C70101967C010150110981F767C090
S11313703B3559F49201A701B801C6010E94040744
S11313802C01892B09F05BC055C0C60139830E942A
S11313906306398197FD57C03F36D9F140F434369E
S11313A0A1F13936C9F1383509F03DC02AC03337C7
S11313B0A1F018F4303729F136C0353731F1383718
S11313C001F131C0E114F10429F0F7016082C70191
S11313D001967C010150110971F0C6010E948C0C28
S11313E03C0197FD08C00E945A0C892B59F3B601A1
S11313F0C3010E94480DE114F10409F1F7011082C0
S11314001EC0FB2DF064BF2E07C08B2D8062B82E4A
S113141003C09B2D9061B92E2B2DA701B801C601E5
S11314200E947C0605C0A701B801C6010E94B0074E
S1131430811105C0F6018381807329F406C0B0FCD4
S1131440E8CEA394E6CEAA2019F08A2D90E002C03B
S11314508FEF9FEF2196E0E10C94690BE89409C0AB
S113146097FB3EF490958095709561957F4F8F4FD3
S11314709F4F9923A9F0F92F96E9BB279395F695E9
S1131480879577956795B795F111F8CFFAF4BB0F67
S113149011F460FF1BC06F5F7F4F8F4F9F4F16C0CB
S11314A0882311F096E911C0772321F09EE8872F55
S11314B0762F05C0662371F096E8862F70E060E011
S11314C02AF09A95660F771F881FDAF7880F96958A
S11314D0879597F908950E947E0A0C94EF0A0E945A
S11314E0E10A38F00E94E80A20F0952311F00C94E8
S11314F0D80A0C94DE0A11240C94230B0E94000BCE
S113150070F3959FC1F3950F50E0551F629FF00152
S1131510729FBB27F00DB11D639FAA27F00DB11D6B
S1131520AA1F649F6627B00DA11D661F829F2227F4
S1131530B00DA11D621F739FB00DA11D621F839F7B
S1131540A00D611D221F749F3327A00D611D231F51
S1131550849F600D211D822F762F6A2F11249F579F
S113156050409AF0F1F088234AF0EE0FFF1FBB1FA2
S1131570661F771F881F91505040A9F79E3F510561
S113158080F00C94D80A0C94230B5F3FE4F3983E4C
S1131590D4F3869577956795B795F795E7959F5F0B
S11315A0C1F7FE2B880F911D9695879597F908959D
S11315B097F99F6780E870E060E008959FEF80EC02
S11315C0089500240A9416161706180609060895A5
S11315D000240A9412161306140605060895092E0B
S11315E00394000C11F4882352F0BB0F40F4BF2B7A
S11315F011F460FF04C06F5F7F4F8F4F9F4F0895BA
S113160057FD9058440F551F59F05F3F71F04795AF
S1131610880F97FB991F61F09F3F79F08795089594
S1131620121613061406551FF2CF4695F1DF08C0B3
S1131630161617061806991FF1CF869571056105D0
S113164008940895E894BB2766277727CB0197F978
S11316500895A1E21A2EAA1BBB1BFD010DC0AA1FEF
S1131660BB1FEE1FFF1FA217B307E407F50720F007
S1131670A21BB30BE40BF50B661F771F881F991F82
S11316801A9469F760957095809590959B01AC01CB
S1131690BD01CF0108952F923F924F925F926F92B6
S11316A07F928F929F92AF92BF92CF92DF92EF92EE
S11316B0FF920F931F93CF93DF93CDB7DEB7CA1B6F
S11316C0DB0B0FB6F894DEBF0FBECDBF09942A889A
S11316D0398848885F846E847D848C849B84AA8442
S11316E0B984C884DF80EE80FD800C811B81AA81CF
S11316F0B981CE0FD11D0FB6F894DEBF0FBECDBF9A
S1131700ED010895283008F027E03327DA01990F16
S1131710311D87FD916000966105710539F43260D1
S11317202E5F3D9330E32A95E1F708959F3F30F013
S113173080387105610509F03C5F3C5F3D93913051
S113174008F08068911DDF93CF931F930F93FF924E
S1131750EF92192F987F9695E92F96959695E90F14
S1131760FF27E653FF4F99273327EE24FF24A701D1
S1131770E70105900894079428F4360FE71EF81E35
S1131780491F511D660F771F881F991F0694A1F7E3
S11317900590079428F4E70EF81E491F561FC11D33
S11317A0770F881F991F661F0694A1F70590079469
S11317B028F4F80E491F561FC71FD11D880F991F03
S11317C0661F771F0694A1F70590079420F4490F2C
S11317D0561FC71FD81F990F661F771F881F0694AF
S11317E0A9F784911095177041F0D695C795579530
S11317F04795F794E7941A95C1F7E0E7F0E0689409
S11318001590159135916591959105907FE27395A9
S1131810E118F10A430B560BC90BD009C0F7E10CD0
S1131820F11E431F561FC91FD01D7EF4703311F4DF
S11318308A95E6CFE894015030F0080F0AF40027A7
S1131840021708F4202F2395022F7A3328F079E326
S11318507D932A95E9F710C07D932A9589F606941D
S113186097956795379517951794E118F10A430BE7
S1131870560BC90BD00998F023957E9173957A3352
S113188008F070E37C932013B8F77E9170617D9328
S113189030F0839571E37D9370E32A95E1F7112489
S11318A0EF90FF900F911F91CF91DF91992787FDC2
S11318B09095089591110C94BF0D803219F08950C0
S11318C08550C8F708959111089581548A5108F4F8
S11318D0805E855A0895FC010590061621F00020CB
S11318E0D9F7C00108953197CF010895FC010590FF
S11318F0615070400110D8F7809590958E0F9F1F0E
S11319000895FC016150704001900110D8F7809552
S113191090958E0F9F1F0895CF93DF93EC012B8139
S113192020FF33C026FF0AC02F7B2B838E819F812B
S113193001969F838E838A8190E029C022FF0FC085
S1131940E881F9818081082E000C990B009719F425
S113195020622B831AC03196F983E8830EC0EA858E
S1131960FB85099597FF09C02B81019611F080E250
S113197001C080E1822B8B8308C02E813F812F5FC1
S11319803F4F3F832E83992702C08FEF9FEFDF9154
S1131990CF9108950F931F93CF93DF93FB0123817E
S11319A021FD03C08FEF9FEF28C022FF16C04681A0
S11319B05781248135814217530744F4A081B181B2
S11319C09D012F5F3F4F318320838C932681378184
S11319D02F5F3F4F3783268310C0EB01092F182F49
S11319E00084F185E02D0995892BE1F68E819F8194
S11319F001969F838E83812F902FDF91CF911F912A
S1131A000F910895A0E0B0E0E8E0FDE00C945B0BDA
S1131A10AE014B5F5F4FFA0161917191AF0180910B
S1131A203101909132010E94BB02E2E00C94770BE9
S1131A300F931F93CF93DF93E0913101F091320123
S1131A40238121FF1BC08C01D0E0C0E0F80181910B
S1131A508F016091310170913201DB011896ED9193
S1131A60FC911997882331F00995892B79F3DFEFDD
S1131A70CFEFECCF8AE00995892B19F08FEF9FEF18
S1131A8002C08D2F9C2FDF91CF911F910F9108954C
S1131A90FB01238120FF12C026FD10C08F3F3FEFC2
S1131AA0930761F082832F7D20642383268137810D
S1131AB02150310937832683992708958FEF9FEFAB
S1131AC00895FA01AA27283051F1203181F1E894D0
S1131AD06F936E7F6E5F7F4F8F4F9F4FAF4FB1E01D
S1131AE03ED0B4E03CD0670F781F891F9A1FA11D18
S1131AF0680F791F8A1F911DA11D6A0F711D811D19
S1131B00911DA11D20D009F468943F912AE0269FDD
S1131B1011243019305D3193DEF6CF010895462F3C
S1131B204770405D4193B3E00FD0C9F7F6CF462F1D
S1131B304F70405D4A3318F0495D31FD4052419386
S1131B4002D0A9F7EACFB4E0A69597958795779543
S1131B506795BA95C9F700976105710508959B01CA
S1131B60AC010A2E06945795479537952795BA9553
S1131B70C9F7620F731F841F951FA01D089599272D
S10B1B8088270895F894FFCFB3
S1131B8800000003000000004A015D0100005374D6
S1131B986172742055700025753B25753B25753B8E
S1071BA825690A009D
S9030000FC
