S00C00006E6F64652E7372656372
S11300000C944A000C945C000C945C000C94E30087
S11300100C9473000C9474010C945C000C945C00BC
S11300200C945C000C945C000C945C000C945C00DC
S11300300C945C000C945C000C945C000C945C00CC
S11300400C945C000C945C000C945C000C945C00BC
S11300500C945C000C945C000C945C000C945C00AC
S11300600C945C000C945C00FE000B011901270148
S113007036016701670167016701670144015401A3
S11300808F019D01B301C101CF0104020402E0010B
S1130090ED01FB0111241FBECFEFD8E0DEBFCDBFC1
S11300A021E0A0E0B1E001C01D92A130B207E1F768
S11300B00E945E000C9417020C9400001092000140
S11300C085B7806185BF87E08093680080E1809375
S11300D06C008FEF85B99FE798B98BB980E287B937
S11300E0459A7894FFCF1F920F920FB60F92112466
S11300F02F938F939F9392E09BBB8091000182305A
S1130100B9F198F4882331F1813009F052C090910B
S11301106C0088E0892780936C0098B180E289277D
S113012088B990916C0084E03CC0833071F18430D4
S113013009F03FC090916C0081E0892780936C00A6
S113014098B180E2982798B990916B0089278093A1
S11301506B002AC090916C0080E1892780936C0029
S113016098B180E2892788B990916C0088E019C021
S113017020916C0094E0922790936C0028B190E257
S1130180922798B990916C000CC080916C009827CC
S113019090936C0098B180E2892788B990916C00A3
S11301A081E0892780936C00809100018F5F8093A8
S11301B0000182E08BBB9F918F912F910F900FBE16
S11301C00F901F9018951F920F920FB60F92112443
S11301D08F939F93AF93BF93EF93FF9381E08BBB78
S11301E0E09100018E2F90E0FC013597EC30F10591
S11301F008F06DC0EC5CFF4F0C94110290916B0001
S113020080E2982790936B0098B1892788B99091E0
S11302106B0080E129C090916B0080E18927809375
S11302206B0098B180E2892788B990916B0088E0CF
S11302301BC090916B0088E0892780936B0098B174
S113024080E2892788B990916B0084E00DC0909179
S11302506B0084E0892780936B0098B180E2892742
S113026088B990916B0082E089271BC090916B0044
S113027082E0892780936B0098B180E2892788B94E
S113028090916D0081E01BC090916B0080E4892700
S113029080936B0098B180E2892788B980916B00C4
S11302A0805880936B000EC080916B0080588093BF
S11302B06B0098B180E2982798B990916D008927D6
S11302C080936D00809100018F5F8093000181E035
S11302D08BBBFF91EF91BF91AF919F918F910F9045
S11302E00FBE0F901F9018951F920F920FB60F928A
S11302F011248F939F93AF93BF93EF93FF9384E065
S11303008BBBE09100018E2F90E0FC013A97EA301C
S1130310F10508F079C0E05CFF4F0C941102909154
S11303206D0081E0892780936D0098B180E2892770
S113033088B990916D0082E00DC090916D0082E0CB
S1130340892780936D0098B180E2892788B99091BC
S11303506D0084E0892780936D00809100018F5F98
S11303608093000151C090916D0084E089278093AF
S11303706D0098B180E2892788B990916D0088E07A
S1130380E9CF90916D0088E0892780936D0098B142
S113039080E2892788B990916D0080E1DBCF90914C
S11303A06D0080E1892780936D0098B180E28927F0
S11303B088B990916B0080E4892780936B00CDCF3E
S11303C090916D0080E2982790936D0098B18927F1
S11303D088B990916D0080E4BDCF90916D0080E468
S11303E0892780936D0098B180E2892788B980912C
S11303F06D008058B0CF80916D00805880936D005F
S113040098B180E2892788B984E08BBBFF91EF9192
S1130410BF91AF919F918F910F900FBE0F901F903E
S11304201895EE0FFF1F0590F491E02D0994F894B0
S1050430FFCFF8
S9030000FC
